:020000040800F2
:10000000500800202902000811290008B523000823
:100010000D290008510300083529000800000000E0
:100020000000000000000000000000001929000886
:100030005503000800000000152900081D290008CC
:10004000430200084302000843020008430200087C
:10005000430200084302000843020008430200086C
:100060004302000859030008430200084302000845
:10007000430200084302000843020008430200084C
:10008000430200084302000843020008430200083C
:10009000430200084302000843020008610300080D
:1000A000430200084302000843020008430200081C
:1000B000430200084302000843020008430200080C
:1000C00043020008430200084302000843020008FC
:1000D00043020008430200084302000843020008EC
:1000E00043020008430200084302000843020008DC
:1000F00043020008430200084302000843020008CC
:1001000000000000000000000000000043020008A2
:1001100043020008430200084302000843020008AB
:10012000430200084302000843020008430200089B
:100130004302000843020008000000000000000025
:1001400043020008430200084302000800000000C8
:10015000000000000000000000000000000000009F
:1001600000000000000000004302000843020008F5
:100170004302000800000000000000000000000032
:10018000000000004302000800F002F800F03CF814
:100190000AA090E8000C82448344AAF10107DA45E2
:1001A00001D100F031F8AFF2090EBAE80F0013F0F8
:1001B000010F18BFFB1A43F0010318471C2B000066
:1001C0003C2B0000103A24BF78C878C1FAD85207F7
:1001D00024BF30C830C144BF04680C6070470000C1
:1001E0000023002400250026103A28BF78C1FBD840
:1001F000520728BF30C148BF0B6070471FB502F0DF
:100200002DFD1FBD10B510BD00F06CF81146FFF7B5
:10021000F5FF02F091FB00F08AF803B4FFF7F2FF5C
:1002200003BC00F08DF800000948804709480047EA
:10023000FEE7FEE7FEE7FEE7FEE7FEE7FEE7FEE796
:10024000FEE7FEE704480549054A064B70470000F3
:1002500021290008890100085002002050080020D0
:1002600050040020500400204FF0000200B5134657
:1002700094469646203922BFA0E80C50A0E80C50C6
:10028000B1F12001BFF4F7AF090728BFA0E80C5077
:1002900048BF0CC05DF804EB890028BF40F8042B70
:1002A00008BF704748BF20F8022B11F0804F18BFDD
:1002B00000F8012B704770477047704710B500F089
:1002C00009F8006810BD10B5044600F003F804609A
:1002D00010BD000000487047100000200048704723
:1002E000100000207546FFF7F9FFAE46050069468D
:1002F000534620F00700854618B020B5FFF7A2FF4F
:10030000BDE820404FF000064FF000074FF0000816
:100310004FF0000BAC46ACE8C009ACE8C009ACE853
:10032000C009ACE8C00921F007018D46704710B53F
:100330000446AFF300802046BDE81040FFF76DBFD4
:1003400001491820ABBEFEE72600020070470000FE
:10035000FEE7000070470000082001F063B80000CD
:100360004FF4807001F05EB8EFF3108072B600BFFA
:10037000FEE700002DE9F041012904460ED10020DE
:100380000021C4F20C20C4F2A811C4E9080146F20D
:100390008C0045F69911012205E000BF46F2666027
:1003A0004FF400410022E27621856085651C01F052
:1003B00039F940F20016C0F20116B0424FF47A70DB
:1003C0004FF47A7838BF40F2E93001F015F8228D09
:1003D000638D204642F2126100F088FA01F022F9A2
:1003E000B0424FF032004FF0320738BF332001F0F7
:1003F00003F820462946032200F0CAF9B4F80100A8
:1004000000BA000C208601F00DF9B0424FF47A706A
:1004100038BF40F2E93000F0EFFF228D638D2046B7
:1004200042F2126100F062FA01F0FCF8B0424FF0C3
:10043000320038BF332000F0DFFF20462946032278
:1004400000F0A6F9B4F8010000BA000C208601F013
:10045000E9F8B0424FF47A7038BF40F2E93000F06A
:10046000CBFF228D638D204642F2126100F03EFAEE
:1004700001F0D8F8B0424FF0320038BF332000F01E
:10048000BBFF20462946032200F082F9B4F80100A0
:1004900000BA000C208601F0C5F8B0424FF47A7023
:1004A00038BF40F2E93000F0A7FF228D638D20466F
:1004B00042F2126100F01AFA01F0B4F8B0424FF0C3
:1004C000320038BF332000F097FF20462946032230
:1004D00000F05EF9B4F8010000BA000C208601F0CB
:1004E000A1F8B0424FF47A7038BF40F2E93000F022
:1004F00083FF228D638D204642F2126100F0F6F9EF
:1005000001F090F8B0424FF0320038BF332000F0D5
:1005100073FF20462946032200F03AF9B4F801009F
:1005200000BA000C208601F07DF8B0424FF47A70DA
:1005300038BF40F2E93000F05FFF228D638D204626
:1005400042F2126100F0D2F901F06CF8B0424FF0C3
:10055000320038BF332000F04FFF204629460322E7
:1005600000F016F9B4F8010000BA000C208601F082
:1005700059F8B0424FF47A7038BF40F2E93000F0D9
:100580003BFF228D638D204642F2126100F0AEF9EE
:1005900001F048F8B0424FF0320038BF332000F08D
:1005A0002BFF20462946032200F0F2F8B4F80100A0
:1005B00000BA000C208601F035F8B0424FF47A7092
:1005C00038BF40F2E93000F017FF228D638D2046DE
:1005D00042F2126100F08AF901F024F8B0424FF0C3
:1005E000320038BF332000F007FF2046294603229F
:1005F00000F0CEF8B4F8010000BA000C208601F03B
:1006000011F8B0424FF47A7038BF40F2E93000F090
:10061000F3FE228D638D204642F2126100F066F9EE
:1006200001F000F8B0424FF0320038BF332000F044
:10063000E3FE20462946032200F0AAF8B4F80100A0
:1006400000BA000C208600F0EDFFB04238BF40F247
:10065000E938404600F0D0FE228D638D204642F2FC
:10066000126100F043F900F0DDFFB04238BF3327DC
:10067000384600F0C1FE20462946032200F088F8E3
:10068000B4F8010000BA000C2086BDE8F08100003B
:100690002DE9F04F81B00446C07E40F2001A0128D7
:1006A000C0F2011A46D140F2A81840F2001904F134
:1006B000010B04F1340604F138076425C2F2000886
:1006C000C2F2000900F0AEFF50454FF47A7038BF17
:1006D00040F2E93000F090FE228D638D204642F218
:1006E000196100F003F900F09DFF50454FF0320012
:1006F00038BF332000F080FE20465946062200F025
:1007000047F8B4F80100324600BA010CB4F803000F
:10071000218600BA000C6086404600F013FB618E13
:1007200048463A4600F00EFB013DCBD101B0BDE892
:10073000F08F00BF228D638D204642F2196100F0D8
:10074000D5F800F06FFF3221504538BF33210846FD
:1007500000F052FE611C2046062200F019F8B4F8A1
:100760000100B4F8031000BA000C208608BA000C8F
:10077000608600F057FF4FF47A71504538BF40F261
:10078000E931084601B0BDE8F04F00F035BE000089
:100790002DE9F04381B090460D46814648F2A067AE
:1007A00040F2AC00C0F20107C2F20000B2212A46BA
:1007B0004346009700F0DEFFB8F1000F00F0928092
:1007C00000203121002200BF2E562B18F44381EA6D
:1007D000440793F801E093F802C0002E48BF670079
:1007E0007CB281EA4706B4F1FF3FC8BF7E0074B215
:1007F00081EA4607B4F1FF3FC8BF77007CB281EAC7
:100800004706B4F1FF3FC8BF7E0074B281EA4607D5
:10081000B4F1FF3FC8BF77007CB281EA4706B4F16C
:10082000FF3FC8BF7E0074B281EA4607B4F1FF3FC4
:10083000C8BF77007CB281EA4706B4F1FF3FC8BF6A
:100840007E008EEA06077EB281EA4704B6F1FF3FDA
:10085000C8BF7C0067B281EA4406B7F1FF3FC8BF5A
:10086000660077B281EA4604B7F1FF3FC8BF740063
:1008700067B281EA4406B7F1FF3FC8BF660077B2AE
:1008800081EA4604B7F1FF3FC8BF740067B281EA4E
:100890004406B7F1FF3FC8BF660077B281EA46045D
:1008A000B7F1FF3FC8BF740067B281EA4406B7F1F1
:1008B000FF3FC8BF6600F7B2A7EB0C07B7FA87F790
:1008C0007F0989F82D6089F82E702F5C96B2AF559C
:1008D00003305B7880B246F00104023240452B556C
:1008E000FFF472AF01B0BDE8F0830000B0B582B094
:1008F0008446080A0CF80C0F100A2CF8021C8CF81D
:1009000001108CF802006FEA1221312014B280EA43
:1009100041058CF80320002C48BF4D0069B280EAE5
:100920004504B1F1FF3FC8BF6C0061B280EA4405E5
:10093000B1F1FF3FC8BF650069B280EA4504B1F17B
:10094000FF3FC8BF6C0061B280EA4405B1F1FF3FD0
:10095000C8BF650069B280EA4504B1F1FF3FC8BF76
:100960006C0061B280EA4405B1F1FF3FC8BF650089
:1009700069B280EA4504B1F1FF3FC8BF6C0084EA68
:1009800002014AB280EA4104B2F1FF3FC8BF4C0005
:1009900061B280EA4402B1F1FF3FC8BF620051B2C8
:1009A00080EA4204B1F1FF3FC8BF540061B280EA5F
:1009B0004402B1F1FF3FC8BF620051B280EA420475
:1009C000B1F1FF3FC8BF540061B280EA4402B1F107
:1009D000FF3FC8BF620051B280EA4204B1F1FF3F5D
:1009E000C8BF540061B280EA4402B1F1FF3F4FEA50
:1009F0001321C8BF62008CF805106FEA13210FFAAB
:100A000083FE8CF8042080EA41028CF80630BEF1A7
:100A1000000F48BF4A0051B280EA4205B1F1FF3FE2
:100A2000C8BF550069B280EA4502B1F1FF3FC8BFB7
:100A30006A0051B280EA4205B1F1FF3FC8BF5500DC
:100A400069B280EA4502B1F1FF3FC8BF6A0051B206
:100A500080EA4205B1F1FF3FC8BF550069B280EAA4
:100A60004502B1F1FF3FC8BF6A0051B280EA4205BA
:100A7000B1F1FF3FC8BF550085EA03014AB280EAE1
:100A80004103B2F1FF3FC8BF4B0059B280EA4302B5
:100A9000B1F1FF3FC8BF5A0051B280EA4203B1F141
:100AA000FF3FC8BF530059B280EA4302B1F1FF3F94
:100AB000C8BF5A0051B280EA4203B1F1FF3FC8BF3C
:100AC000530059B280EA4302B1F1FF3FC8BF5A0058
:100AD00051B280EA4203B1F1FF3FC8BF530059B29F
:100AE00080EA4300B1F1FF3FC8BF58008CF82100F5
:100AF0008CF8070040F2AC004FF47A75C2F20000A7
:100B0000B22162460823009500F002FF02B0B0BD9A
:100B10002DE9F04F81B0044640F2A810C2F2000067
:100B20000021002600F072F840F20010C2F200002E
:100B30000121012700F06AF843F2826040F2AC081C
:100B4000C8F2362004F10C0944F2402AC2F200082F
:100B50002546C4F80A00C0F20F0A4046B2214A46B0
:100B600002236672C4F8056045F8016FCDF800A055
:100B700000F0CEFE00F056FD40F2001BC0F2011B5B
:100B8000584538BF0227384600F036FC2046294633
:100B90000922FFF7FDFD2888B4F8031000BA000C05
:100BA000A08208BAB4F80510000CE08208BA000C64
:100BB000208342F60E00C0F62860C4F80A004046C2
:100BC000B2214A46022366722E60C4F80560CDF851
:100BD00000A000F09DFE00F025FD4FF4A0715845E7
:100BE00038BF40F24111084600F006FC2046294675
:100BF0000322FFF7CDFDA07800F00F00B0FA80F0DF
:100C00004009A07601B0BDE8F08F00004FF07E52A1
:100C100001290160426013D19FED3C2A9FED3C0AFF
:100C20009FED3C1A9FED3C5A9FED3C6A9FED3C7A4C
:100C3000B3EE0E4A42F21071B7EE003A12E000BF76
:100C40009FED380A9FED381A9FED384A9FED385ACC
:100C50009FED386A9FED387A9FED383AB3EE052A5A
:100C600044F6206180ED074A9FED354A002384EE6B
:100C7000022AC4F26633036242F61F53C3F64243AC
:100C800040F2000C0022C3644AF2A013C160C4F217
:100C9000401CC4F248220021C3F6D143C0F824C04E
:100CA000C0E90AC242F61F5C8264C0E91631C0E99D
:100CB0001E2140F631424CF67573C3F6C22CC3F6C2
:100CC0004352C3F6023380ED023A80ED047A80EDA0
:100CD000056A80ED065AC0E90C11816380F83C106A
:100CE000C0E91011C0F850C080ED152AC0E91811F4
:100CF000C0E91A1180ED200A80ED211A80ED223A18
:100D0000C0E9232380F89410704700BF0020964468
:100D1000787A25BC008019440050A046009885468A
:100D200000003444F4FDD4BB000055430000AA4346
:100D30000020A34500C02845000034430000C842FD
:100D40000000004470B52DED108B90ED0C0A9FED66
:100D5000DC1A0546B4EE410A1446F1EE10FA25DD20
:100D6000481E4FF6E652904210D8E86847F6FF72E8
:100D700002448A42A8BF0A468842A8BF421C101AF1
:100D800000EE100AB8EEC00A85ED0D0A2868A8B179
:100D900095F83C10002947D095ED0D0A95ED1F1AE6
:100DA00001280FD19FEDC72A12E000BF95ED011A6F
:100DB00030EE010A85ED0C0AECE200BF95ED0D0A5C
:100DC00095ED1F1A95ED1E2A9FEDE93A33EE422A62
:100DD00030EE410A80EE020A95ED081A95ED213AAF
:100DE00095ED202A21EE001A31EE430A9FEDE13AFB
:100DF00022EE000AB4EE430AF1EE10FA06DA9FED95
:100E0000DEAA95F8940078BB61E000BF9FEDDB2A75
:100E1000B4EE420AF1EE10FA0CDD9FEDD9AA95F876
:100E2000940008BB53E000BF95ED02AA95F894002A
:100E3000D0B94CE0B5EE401AF1EE10FA1ADA95EDA1
:100E4000021A95ED222A81EE028A01F0E1FDB7EE49
:100E5000001A9FEDC92A30EE010A82EE000A28EE40
:100E600000AA95F8940090B395ED261A95ED270AFF
:100E700036E000BF95ED021AB7EE008A9FEDC13A49
:100E800038EE414A24EE033AB9EE044A9FEDBA5ACD
:100E900095ED222A21EE041A31EE051AB5EE004A2C
:100EA00021EE049AB4EE482AF1EE10FA08BFB0EE33
:100EB000439A39EE05AA01F0ABFD30EE080A8AEE3E
:100EC000000A30EE49AA95F894000028CCD1012000
:100ED000B0EE4A0AB0EE4A1A85ED28AA85F89400C9
:100EE00095ED232AB7EE008A95ED243A38EE424A72
:100EF0002AEE022A24EE011A31EE021A38EE432AB3
:100F00002AEE033A22EE000A30EE030A85ED270AA4
:100F100031EE400AB5EE400A9FED9B2A85ED261A78
:100F2000B1EE401AF1EE10FAB8BFB0EE410A20EE71
:100F3000020A01F06DFD9FED951AB3EE042A20EE32
:100F4000011A95ED010A31EE021A30EE011A80EE17
:100F5000011A95ED282A95ED0D9A38EE413A2AEEC0
:100F6000011A23EE022A32EE011AB6EE002AB4EE7E
:100F7000421AF1EE10FAB5EE409A85ED281AB8BF84
:100F8000B0EE421AF1EE10FA85ED0E1A40F302822D
:100F900095F83C0000284BD095ED101A9FED7C2A67
:100FA00095ED11AAB4EE421AF1EE10FA06DA9FEDB1
:100FB000792AB4EE421AF1EE10FA05DC31EE0AAAF3
:100FC000002085ED11AA28649FED731A95ED193A5A
:100FD00031EE402AB4EE423AF1EE10FABCBF30EEE8
:100FE000033A85ED193A95ED1A1A9FED62BAB4EEFF
:100FF000421AF1EE10FABCBF30EE011A85ED1A1A52
:1010000095ED052A4DF20A7633EE420A9FEDEB3A52
:10101000C3F6234620EE030AB4EE4B0AF1EE10FAB3
:101020002E6785ED1D2A0FDAB0EE48CA24E000BF16
:10103000012085F83C00002095ED120A9FEDE31A8F
:1010400085ED119A28649FE19FEDE14AB4EE440AD0
:10105000F1EE10FA02DD9FEDDDCA0DE001F0D8FCE3
:10106000B7EE001A30EE010A81EE00CA95ED1A1AA9
:1010700095ED1C3A95ED1D2A95ED13EA95ED150AAF
:1010800095ED07DA30EE4E0A60EE0C8A31EE420A38
:101090009FEDD1FA23EE000AB4EE4B0A7FEE4D9A93
:1010A000F1EE10FAB0EE481A16DB9FEDC91AB4EE55
:1010B000410AF1EE10FA07DD9FEDC41A0CE000BF03
:1010C000000034420000FA4401F0A2FCB7EE001A1E
:1010D00030EE010A81EE001A29EE810A95ED0E1A12
:1010E00078EE8E8A30EE0D0A9FEDBCEA31EE400AB2
:1010F00020EE0E0AB4EE4B0AF1EE10FAB0EE48DA2A
:1011000012DB9FEDB31AB4EE410AF1EE10FA03DDE3
:101110009FEDAEDA08E000BF01F07AFCB7EE001AEE
:1011200030EE010A81EE00DA28EE8D0A85ED170A0D
:1011300095ED061A95ED190A9FEDA62A30EE410AA3
:1011400020EE020AB4EE4B0AF1EE10FA2E6785ED9E
:101150001D1A03DAB0EE480A2CE000BF9FED9C3A5E
:10116000B4EE430AF1EE10FA18DD9FED980A21E083
:1011700000005CC3000048C20000FA43000048427F
:1011800000000000AB41803FCDCC4CBE0000F043DE
:101190000000C8420000C8C200FEFF4601F038FC53
:1011A000B7EE001A30EE010A81EE000A95ED1C2A16
:1011B00095ED1D1AD5ED149A95ED163A95ED1A4A4E
:1011C00033EE693A30EE4C0A23EE00CA34EE410A9F
:1011D000D5ED078A22EE000AB4EE4B0A3FEE68FA1C
:1011E000F1EE10FAB0EE481A12DB9FED791AB4EE68
:1011F000410AF1EE10FA03DD9FED741A08E000BF1A
:1012000001F006FCB7EE001A30EE010A81EE001A7A
:101210002FEE010A95ED0E1A30EE280A85ED1D0A13
:1012200031EE400A20EE0E0A45F2EC10B4EE4B0A05
:101230003CEE29CAC3F6B850F1EE10FAB0EE482AD7
:10124000286711DB9FED621AB4EE410AF1EE10FA45
:1012500002DD9FED5E2A07E001F0DAFBB7EE001A2F
:1012600030EE010A81EE002A95ED010A9FED5C1A2D
:101270009FED5C6A80EE013A38EE4D5A9FED5A7A46
:1012800025EE065A95ED1B4A35EE075A2CEE020A5A
:1012900095ED042A85ED180A39EE4A1A9FED55BAE4
:1012A000B7EE009A3BEE400A23EE053A33EE043ADD
:1012B000B5EE403A9FED454AF1EE10FAB8BFB0EEF8
:1012C000443AB4EE423AF1EE10FA85ED1B3AC4BF4F
:1012D0000020A86695ED102A9FED444A31EE421A8F
:1012E00021EE04AA95ED123A21EE441AB5EE40AA79
:1012F000B0EE4A2AF1EE10FAB8BFB0EE412A9FEDE7
:101300003C1A33EE022A82EE013AB4EE412AF1EEA3
:1013100010FA23EE033AC8BFB0EE439A20EE090A52
:10132000B1EEC08AB4EE488AF1EE10FA40D695EDDF
:10133000181A95ED122A29EE0B0A2AEE011A81EEEF
:10134000091A82EE000A2AEE011A22EE000A30EE95
:10135000011AB1EEC10AB4EE400AF1EE10FA2FD62E
:1013600095ED172A95ED101A2AEE022AB4EE003AEE
:1013700095ED119A22EE032A28EE000A31EE021AA8
:1013800085ED120A85ED101A31EE091A85ED1E0A57
:1013900085ED1F1A95ED0E0AB6EE001A30EE010A21
:1013A000BDEEC00A84ED000ABDEC108B70BD00BF1D
:1013B00001F024FCB0EE408AB9E700BF0AD7233C15
:1013C000B0EE410A01F01AFCCAE700BF00000000BD
:1013D000000048420AD7233C0000FF43EC51B83DCF
:1013E000000070426666A63F9A9999BE0000803C54
:1013F0000000B44400008042B0B5044600F018F983
:10140000054640F20000C2F200000078611C18BFDF
:10141000044400BF00F00CF9401BA042FAD3B0BD59
:101420007047000040F21441C4F201010A68024210
:1014300014BF08607047FFF7F3BF00002DE9F04FBD
:1014400084B08E4641F20002C4F60002DEF800408D
:1014500005219042019008BF0421002C009100F06A
:10146000D7800198002500F138424FEAB223009856
:10147000012700264FF00008042B38BF18460090C3
:10148000CDF808E00EE000BFDEF8004008F10108EA
:1014900034FA07F106F1020607F1010705F1040528
:1014A00000F0B680A7F1010A012000FA0AF314EA5D
:1014B0000309E9D0DEF804C00CF0030BABF1010422
:1014C000012C17D80198744681680322E468B24061
:1014D0009143B4402143816041684FEA480E9943EB
:1014E000CCF3001303FA0AF30446D04319436160B6
:1014F0000CE000BF0321B140019CC843BBF1030FC6
:10150000B64603D1B6464FF0030B23E0E168029ADA
:1015100001409368BBF1020F03FA0EF341EA0301A5
:10152000E16017D16FF0030101EA5A01214405F08F
:101530001C040F23D1F820C003FA04FB13692CEA22
:101540000B0CA34043EA0C03019C0B62D2F804C0CD
:101550000CF0030B21680BFA0EF2014011432160DD
:10156000DDF808E01CF4403F8ED041F21800C4F2D0
:101570000200016840F2004C41F001010160016885
:10158000C4F2010C01F00101039103992AF0030157
:101590004FF6084A6144CFF6FF7A05F00C030F209E
:1015A00051F80A2000FA03F40098A24300FA03F36A
:1015B0001A4341F80A20DCF80810DEF8042041EA5A
:1015C000090340F20C40D40258BF21EA0903CCF8C9
:1015D0000830C4F201000168940241EA090358BFCF
:1015E00021EA09030360DCF80410940341EA0903CB
:1015F00058BF21EA0903CCF80430DCF80010D2030C
:1016000041EA090358BF21EA0903CCF800303BE75F
:1016100004B0BDE8F08F00001823002A08BF28237B
:10162000C150704740F20070C0F2051070470000D2
:1016300040F2A410C2F200000068704790F8412008
:10164000202A03D190F84020012A01D102207047BE
:10165000242280F841200268136823F001031360FC
:10166000136823F4805313601368194311601168E1
:1016700041F001011160202180F84110002180F823
:10168000401008467047000090F84120202A03D1FE
:1016900090F84020012A01D102207047242280F8CE
:1016A00041200268136823F001031360136823F4D8
:1016B000706343EA01211160116841F0010111607A
:1016C000202180F84110002180F840100846704722
:1016D000002804BF0120704710B5044690F841006F
:1016E00028B9002084F84000204600F0DDF92420CD
:1016F00084F8410094E80910E2680168012A21F0A9
:101700000101016023F070610161816821F40041F1
:10171000816003D14CF40041816007E04CF4044146
:10172000022A816004BF4FF400614160416804F106
:10173000100C41F0007141F400414160C16821F496
:101740000041C1609CE80E10114341EA0321C160D1
:10175000216A41EA0C010160016841F00101016068
:1017600000202021606484F84110206384F8420046
:1017700010BD00002DE9F04782B0044690F841000A
:10178000202803D194F84000012803D1022002B0A0
:10179000BDE8F0870120984617460E4684F84000C1
:1017A000FFF746FF216805468A69120425D42220E6
:1017B00084F84100102084F84200002060646762D1
:1017C000A4F82A806063628D49F6000040F20008A8
:1017D000CFF60040B2F5807FC0F2FF1820D351F859
:1017E000042F6FF39F2602EA000308F51057FF222B
:1017F000B24622E088690004D9D5FFF719FF401BE3
:1018000021681A28F6D388690004F3D5606C40F08B
:1018100020006064202084F8410001206FE000BFB8
:10182000628D51F8047F6FF39F26D3B2B24646EA29
:10183000034307EA000608F5923733433B430B6046
:101840002285618D0A9E002942D04FF0FF0900F5E4
:1018500080670FE0618D2068218550F8042FC9B2A0
:101860004AEA01413A404FF00073114319430160C5
:10187000608D68B3204631462A4600F0BFFE68BB43
:101880002068616A406A0870606A218D0130606278
:10189000481E2085618D01396185618D0029E7D061
:1018A0000004E5D12046802100223346009500F057
:1018B00031FE98B9608DB0F5807FCBD32068A4F855
:1018C000289050F8041F524639404346CDE700BFE8
:1018D000204631462A4600F0F9FE18B1012002B038
:1018E000BDE8F08720682021C16142684EF6000300
:1018F000CFF600631A404260002084F841100021B6
:1019000084F8421084F8401002B0BDE8F08700006F
:101910002DE9F04782B0044690F84100202803D119
:1019200094F84000012803D1022002B0BDE8F087FE
:101930000120984617460E4684F84000FFF778FECF
:10194000216805468A69120425D4212084F84100C3
:10195000102084F84200002060646762A4F82A80A6
:101960006063628D49F6000040F20008CFF6004047
:10197000B2F5807FC0F2FF1820D351F8042F6FF327
:101980009F2602EA000308F50057FF22B24622E034
:1019900088690004D9D5FFF74BFE401B21681A283F
:1019A000F6D388690004F3D5606C40F020006064D1
:1019B000202084F8410001206DE000BF628D51F8C5
:1019C000047F6FF39F26D3B2B24646EA034307EA89
:1019D000000608F5903733433B430B602285618D49
:1019E0000A9E002940D04FF0FF0900F580670FE004
:1019F000618D2068218550F8042FC9B24AEA01415F
:101A00003A404FF00073114319430160608D58B3A1
:101A1000204631462A4600F097FE58BB606A21688E
:101A200010F8012B8A626062608D01386085208D1C
:101A300001382085618D0029E8D00004E6D12046D8
:101A4000802100223346009500F064FD90B9608D3E
:101A5000B0F5807FCCD32068A4F8289050F8041FFC
:101A6000524639404346CEE7204631462A4600F0EA
:101A70002DFE18B1012002B0BDE8F08720682021BA
:101A8000C16142684EF60003CFF600631A4042601F
:101A9000002084F84110002184F8421084F840109E
:101AA00002B0BDE8F087000010B586B0006845F2CE
:101AB0000041C4F20001884202D006B010BD00BF50
:101AC00041F21404C4F20204206801A940F4802009
:101AD0002060206800F48020019001984FF440704D
:101AE0000190122002900020039003200490042013
:101AF000059040F20040C4F60000FFF79FFCA0688C
:101B000040F40010A060A06800F40010009000985D
:101B100006B010BD40F2000040F2A411C2F2000075
:101B2000C2F2000100780A681044086070470000A3
:101B300080B542F20000C4F20200016841F01001D9
:101B40000160032000F082F80F2000F005F800F09B
:101B500027F8002080BD000070B540F20006C2F2F8
:101B6000000640F208013278C2F200014FF47A73A5
:101B70000968B3FBF2F20446B1FBF2F1084600F04B
:101B800003FC0F2C4FF0010508D838B94FF0FF3097
:101B900021460022002500F02DF87460284670BD13
:101BA00082B041F21800C4F20200016841F0010164
:101BB0000160016801F0010101910199416841F062
:101BC00080514160406800F080500090009802B061
:101BD00070470000002848BF704700F01F01012235
:101BE00002FA01F14EF200124009CEF2000242F870
:101BF0002010704710B54EF60C5CCEF2000CDCF8ED
:101C00000030C3F3022E8EF00704042C28BF0424F6
:101C1000BEF103034FF0FF3E0EFA04F438BF002379
:101C2000A14399400EFA03F39A43114300F00F02C7
:101C3000043A624409010C3200F16043B0F1FF3F05
:101C4000C8BF03F56442117010BD00004EF60C5180
:101C5000CEF200010A684FF6FF031A4060F30A2231
:101C600042F0806040F0FD70086070472DE9F0415F
:101C700082B00446807841F23006C007C4F2020602
:101C800056D056F8140C10F080580BD156F8140C9E
:101C900040F0805046F8140C56F8140C00F08050B8
:101CA0000190019847F20007C4F200073868C005A8
:101CB00012D4386840F480703860FFF7B9FC0546EC
:101CC0003868C00508D4FFF7B3FC401B6428F7D977
:101CD000032002B0BDE8F08156F8100C10F44070FB
:101CE00015D0616801F44071884210D056F8100C8C
:101CF00040F24042C4F24222012320F440711360BA
:101D00000023C007136046F8101C40F0A38056F86B
:101D1000100C616820F440700843B8F1000F46F8D9
:101D2000100C05D156F8140C20F0805046F8140C15
:101D30002068C1071CD1810722D4410728D481061D
:101D40002ED4810334D441063CD4010742D4C106C9
:101D500048D481054ED4010656D4C1055ED4C104D1
:101D600066D480046CD4002002B0BDE8F08100BFCE
:101D70003168A26821F00301114331608107DCD58D
:101D80003168E26821F44031114331604107D6D512
:101D90003168226921F44021114331608106D0D598
:101DA0003168E26921F01001114331608103CAD525
:101DB00056F82C1CA26B21F48001114346F82C1C10
:101DC0004106C2D53168226A21F0200111433160F9
:101DD0000107BCD53168626921F4401111433160BB
:101DE000C106B6D53168A26921F4400111433160C2
:101DF0008105B0D556F82C1CE26A21F4000111438C
:101E000046F82C1C0106A8D556F8041C626A21F479
:101E1000F871114346F8041CC105A0D556F8041CFE
:101E2000A26A21F47851114346F8041CC10498D5E4
:101E30003168226B21F4807111433160800492D5A6
:101E40003068616B20F4007008433060002002B0FD
:101E5000BDE8F081FFF7ECFB054641F2883700BF93
:101E600056F8100C80073FF552AFFFF7E1FB401B1F
:101E7000B8424FF00300F3D9E9E700002DE9F04341
:101E800081B0002877D042F20008C4F2020804466C
:101E9000D8F800000D4600F0070088420CD2D8F8B0
:101EA000000020F007002843C8F80000D8F8000020
:101EB00000F00700A8425ED1206841F204098107C2
:101EC000C4F2020907D5D9F80010A26821F0F00188
:101ED0001143C9F80010C00744D1D8F8000000F041
:101EE0000700A8420CD9D8F8000020F007002843CA
:101EF000C8F80000D8F8000000F00700A8423AD166
:101F00002068410707D5D9F80010E26821F4E061A4
:101F10001143C9F80010000708D5D9F8000021695D
:101F200020F4605040EAC100C9F80000D9F8002050
:101F300002F00C00082841F20020C0F27A0051D1D2
:101F400042F6B843C2F38341C0F60003595CD9F8A6
:101F50002830D2033CD440F60010C0F23D00484384
:101F600040E000BF606802280AD001282AD159F851
:101F7000041C890308D4012001B0BDE8F08300BF30
:101F800059F8041C8901F6D5D9F8001021F0030195
:101F90000843C9F80000FFF74BFB064641F28837BB
:101FA000D9F80000616800F00C00B0EB810F94D00C
:101FB000FFF73EFB801BB842F2D9032001B0BDE819
:101FC000F08300BF59F8041C8907D4D5DCE700BFB3
:101FD00003F00F0242F6C843C0F600039A5CB0FB60
:101FE000F2F04843D9F8001042F6A842C1F30311B9
:101FF000C0F60002515C40F2080220FA01F140F202
:102000000400C2F200000068C2F200021160FFF793
:10201000A3FD002001B0BDE8F08300002DE9F041F0
:1020200082B0002850D00446007841F20006C00774
:10203000C4F202060AD0706800F00C00042840F0D8
:1020400085803068800301D56068E8B32078800718
:102050001AD5706810F00C0F09D0706800F00C00F1
:10206000082840F0A5807068C00300F1A1803068A6
:10207000800702D52069012826D13068616920F0E7
:10208000F80040EAC10030602078000720D42078B2
:10209000400735D4E56995B1706800F00C00082858
:1020A00040F0C280012D0FD07068216A00F48032A8
:1020B0008A4209D1616A00F47010884204D100207C
:1020C00002B0BDE8F08100BF012002B0BDE8F081A0
:1020D000A069002800F094800020C4F24220012171
:1020E000C0F88014FFF7A4FA054600BF706A8007A5
:1020F000CDD4FFF79DFA401B0228F7D91CE100BFA1
:10210000F06910F0805808D1F06940F08050F0611B
:10211000F06900F080500190019847F20007C4F286
:1021200000073868C00559D4386840F480703860BA
:10213000FFF77EFA054600BF3868C0054ED4FFF7AA
:1021400077FA401B6428F7D9F6E000BF706800F00A
:102150000C00082803D17068C0033FF572AF6068B7
:10216000B0F5A02F00F09480B0F5803F00F094808F
:10217000002840F09580306820F48030306030686E
:1021800020F480203060F06AA16820F00F0008433E
:10219000F062FFF74DFA0546306880037FF556AFD1
:1021A000FFF746FA401B64284FF00300F4D987E795
:1021B0002069002840F20000C4F2422056D00121DC
:1021C0000160FFF735FA0546306880073FF555AFE7
:1021D000FFF72EFA401B0228F6D9ADE0E068002890
:1021E00000F07A80052800F09180012800F09280AC
:1021F000306A20F001003062306A20F004008CE088
:102200000020C4F242200021C0F88014FFF710FA29
:10221000054600BF706A80077FF539AFFFF708FAFF
:10222000401B0228F6D987E00027C4F2422700208D
:102230003866FFF7FDF9022D05460BD130688001A5
:1022400040F18880FFF7F4F9401B02284FF00300AB
:10225000F4D935E7306880017FF531AFFFF7E8F951
:10226000401B02284FF00300F4D929E70021016048
:10227000FFF7DEF9054600BF306880077FF504AF41
:10228000FFF7D6F9401B02284FF00300F4D917E7F7
:10229000306840F480203060306840F4803006E0E0
:1022A000306820F480303060306820F48020306066
:1022B000F06AA16820F00F000843F062FFF7B8F958
:1022C000054600BF306880033FF5C0AEFFF7B0F9A8
:1022D000401B6428F6D92FE0306A20F001003062FC
:1022E000306A20F004003062FFF7A2F9054641F29F
:1022F000883700BF306A800722D5FFF799F9401B65
:10230000B8424FF00300F5D9DAE600BF306A40F07A
:1023100004003062306A40F001003062FFF788F953
:10232000054641F2883700BF306A800708D4FFF7BE
:102330007FF9401BB842F7D9032002B0BDE8F08115
:10234000B8F1000F7FF4A6AEF06920F08050F06184
:10235000A0E600BF7068D4E9082120F47410084397
:102360001043706001203866FFF762F9044600BF31
:10237000306880013FF5A3AEFFF75AF9001B022831
:102380004FF00300F4D99BE6411E0020B0EB116F23
:102390001CBF012070474EF21002CEF200025160C5
:1023A0004EF62351CEF20001F0230B70072190600E
:1023B00011607047FEE7000070B5044600681546DE
:1023C0008369DA0602D40021002266E00E4610215D
:1023D000C161816989065CD4711C50D036BBFFF79E
:1023E00027F92068426894F8421083691B040BD5D2
:1023F00012F4804208D1202906D0416841F480417E
:102400004160FFF715F9054620688169890605D402
:10241000FFF70EF9401B1A28F6D328E081698906D8
:10242000DDD536E020688169890632D4FFF700F9EE
:10243000401BB042F6D92068426894F84210836984
:102440001B040BD512F4804208D1202906D0416824
:1024500041F480414160FFF7EBF805462068806950
:102460008006DFD4FFF7E4F8401B1A28F6D3206873
:1024700001228169242110E08169890609D48169DA
:10248000890606D4816989065CBF81695FEA81613A
:10249000F2D52021C161012204218369DE0505D521
:1024A0004FF4807241F00101C26101225E0505D442
:1024B0009B050AD472B9002070BD00BF41F008012D
:1024C0004FF480629B05C26104D541F002014FF4D4
:1024D0000072C2618269920744BF002282628269EF
:1024E000D20703D1826942F00102826142684EF64E
:1024F0000003CFF600631A404260606C08436064DA
:10250000202084F84100002084F8420084F8400034
:10251000012070BD2DE9F04106460068144682692D
:102520000D461140491BB1FA81F14909A14237D149
:102530001F46591C14D0BFBBFFF77AF83068816979
:102540002940491BB1FA81F14909A14247D080696C
:102550002840401BB0FA80F04009A042ECD01FE0B8
:1025600081692940491BB1FA81F14909A14217D17A
:1025700081692940491BB1FA81F14909A1420FD172
:1025800081692940491BB1FA81F14909A14207D16A
:1025900081692940491BB1FA81F14909A142DFD083
:1025A0000020BDE8F08100BFDDF8188008E000BF22
:1025B00080692840401BB0FA80F04009A042EFD16A
:1025C000FFF736F8A0EB08013068B942F0D981690D
:1025D0002940491BB1FA81F14909A142E8D1706C47
:1025E00040F020007064202086F84100002086F82A
:1025F000420086F840000120BDE8F08170B5044635
:102600000068806940073BD415460E4619B92EE094
:102610008069400734D4204631462A46FFF7CCFE75
:1026200060BB2068816989062CD4FFF701F8411B43
:102630002068B142ECD981694907E9D4606C40F067
:1026400020006064202084F84100002084F84000CD
:10265000012070BD20688169890613D4FEF7E8FF68
:10266000206881694907E9D58069400708D4204678
:1026700000212A46FFF7A0FE0028EBD0012070BD04
:10268000002070BD8169490704D5218D00291CBF38
:10269000002070BD82694EF60006D2064FF000029F
:1026A00042BF1022C261042262642022C2614368D8
:1026B000CFF6006600213340436084F8412084F85F
:1026C0004210002084F84000012070BD70B504461F
:1026D00000688069800635D415460E4619B928E091
:1026E000806980062ED4204631462A46FFF764FED4
:1026F00030BBFEF79DFF411B2068B142F0D98169D4
:102700008906EDD4606C40F020006064202084F8DD
:102710004100002084F8420084F84000012070BD90
:10272000FEF786FF206881698906EBD580698006FF
:1027300008D4204600212A46FFF73EFE0028EFD0AD
:10274000012070BD002070BD70B50446006880692E
:10275000800720D415460E46481C11D00EBB00BF82
:10276000204600212A46FFF727FEA8BBFEF760FFA0
:1027700020688169890723D580698007F0D50AE040
:1027800020464FF0FF312A46FFF716FE20BB206897
:1027900080698007F4D5002070BD00BF8069800784
:1027A000F9D4204631462A46FFF706FEA0B9FEF7C7
:1027B0003FFF411B2068B142F0D981698907EDD400
:1027C000606C40F020006064202084F8410000200C
:1027D00084F8420084F84000012070BD2DE9F041EA
:1027E00086B0002641F21400CDE90466C4F202006E
:1027F000016840F2004441F4002101600168C4F620
:10280000000401F40021009100990168012241F4C3
:102810008001016001684FF0400801F480010091DF
:1028200000990168012741F400310160016801F459
:10283000003100910099016841F480210160006835
:10284000402100F48020009000982046FEF7E4FE2E
:102850004FF4847001904FF4041001ADCDE90206ED
:102860004FF090402946FEF7E9FD20462946CDE984
:102870000187CDE90367FEF7E1FD09200021002271
:10288000FFF7B8F90920FFF7A5F91720002100226A
:10289000FFF7B0F91720FFF79DF906B0BDE8F0810A
:1028A00080B540F2AC0045F20041C2F20000C4F233
:1028B000000148F6D3520023C1F280024FF0010C10
:1028C00080E80E10C0E90433C0E906330362FEF766
:1028D000FFFE002818BFFDF747FD40F2AC00C2F232
:1028E00000000021FEF7AAFE002818BFFDF73CFDFE
:1028F00040F2AC00C2F200000021FEF7C5FE002845
:1029000008BF80BDBDE88040FDF72EBDFEE700009A
:10291000FEE700007047000070470000FFF7FAB8BC
:102920004EF68850CEF20000016841F4700101605B
:1029300070470000FEE700009EB0FFF7F9F8684618
:10294000002404303821CDE91944CDE91744FDF7BE
:102950008BFC0120149018904FF4E0104FF480315C
:1029600002251D9014A8CDE91514CDE91B51FFF7E0
:1029700055FB28B1EFF3108072B600BFFEE700BF31
:102980000F20CDE90F054FF48060CDE912040FA8A8
:1029900002211194FFF772FA20B1EFF3108072B6A2
:1029A000FEE700BF20200090102007906846FFF748
:1029B0005DF928B1EFF3108072B600BFFEE700BFEB
:1029C000FFF70CFFFFF76CFF40F27004C2F2000447
:1029D0002046FEF79DF820460121FDF7CBFC00BF05
:1029E0002046FDF755FEFBE74100080218BF042012
:1029F0000A0E18BF40F001004FF07F4232EA010199
:102A000008BF40F00200012808BF05207047000001
:102A100010B510EE104A4FF019406949002200EB42
:102A200044002DED028B884257D8DFED660A14F082
:102A3000004F60EE200A14BFBEEE001AB6EE001A78
:102A400071EE200AFDEEE00A10EE900A00EE900A08
:102A5000F8EEE00A9FED5C1A00EEC10A9FED5B1AEA
:102A600000EEC10ADFED5A0A9FED5A1A00EE201A55
:102A7000DFED590A40EE010A9FED581A584B00F05D
:102A8000030100EE201A21EE000A7B4403EB8103D0
:102A9000D3ED000A534B7B4403EB810393ED001A03
:102AA000514B41EE000A7B4403EB8101801091ED14
:102AB000000A70EE800AEABB00EE100AB8EEC01AF7
:102AC000DFED4A1A9FED4A0ABDEC028B01EE210AA6
:102AD000BCEEC00A20EE200A10BD4FF0FF40A0431C
:102AE0001DD04FF0CE40B0EB440F81BFF7EE000A8F
:102AF00030EE200ABDEC028B10BD3E48B0EB440F17
:102B000028BF012291D20220FDF7DDFB14F0004F17
:102B100015D0BDEC028BBDE8104000F097B814F55D
:102B2000000F02BF9FED340ABDEC028B10BDBDEC5F
:102B3000028B00E009E0BDE8104000F07CB8BDEC7D
:102B4000028BBDE8104000F079B800EBD07359104B
:102B50004FF07E5202EBC15100EE101AA0EB630061
:102B600002EBC05060EE200A00EE100A20EE208A30
:102B700018EE100A88B118EE100AB0F1FF4F15D008
:102B800018EE100AFFF730FF042808BF00F05EF8C7
:102B9000B0EE480ABDEC028B10BD0220FDF793FB9E
:102BA000BDEC028BBDE8104000F050B80220FDF7EC
:102BB0008AFBBDEC028BBDE8104000F03FB800007E
:102BC0000000501E3BAAB8400070313EF4FD0537AE
:102BD00012BB2A3D12BB2A3EFFFFFF3EFFFF7F3F95
:102BE000FA010000FE010000CE0100000000004BD1
:102BF00000007E4E0000A0850000000010B52DED05
:102C0000028BB1EEC08A18EE100A20F00040C0F12D
:102C1000FF40C00F0AD010EE100A20F00040C0F1B3
:102C2000FF40C00F04BF0120FDF74DFBB0EE480A86
:102C3000BDEC028B10BD30EE000A70479FED020A1A
:102C400020EE000A70470000000000709FED020AAD
:102C500020EE000A7047000000000010F1EE100A9C
:102C60004FF6FF71C0F2C03120EA010040F0407021
:102C7000E1EE100A704700000000803F0030983FEE
:102C80000000B53F0040D73F00000000320A7E3907
:102C90007F661E395B991F390000803FF037983FEF
:102CA000F304B53FFD44D73F0000000000000000E2
:102CB00001020304060708090203040506070809C0
:102CC0000A0B0C0D0E0F1010010203040506070875
:102CD000090A0B0C0D0E0F10F82C00080000002044
:102CE00010000000C4010008082D0008100000209A
:102CF00040080000E0010008010000001000000092
:082D000000127A00000000003F
:040000050800018965
:00000001FF
